:100000000C9490040C94B8040C94B8040C94B804A8
:100010000C94B8040C94B8040C94B8040C94B80470
:100020000C94B8040C94B6110C94B8040C94B80455
:100030000C94B8040C94B8040C94B8040C94B80450
:100040000C94471B0C94B8040C94B8040C94B8049A
:100050000C94B8040C94B8040C94B8040C94B80430
:100060000C94B8040C94B80411007F78B103053CDB
:100070003CB203053C3CB306053C3C053C3CB401AA
:1000800003C003280804C101C0C2020D00C3028DD1
:100090002AC4028DEEC5011AE0100322070A2E3091
:1000A000252A28262E3A00010313E1100416060D16
:1000B0002D26232727252D3B000104133A01057F18
:1000C00096290011007F14D003074218D1030007BE
:1000D00010D2020102C005103B000211C50103C885
:1000E0000C003236450616377577540C0036010A77
:1000F0003A01552A040000013F2B04000001E07F73
:10010000782900F704A9512C82C0021109C10141CC
:10011000C503000A80B102B011B40102B602022286
:10012000B701C6BE020004E901003601083A0155D4
:10013000E00F00071009170B41894B0A0C0E181B22
:100140000FE10F00171A040E062F4543020A093269
:10015000360F11007F782900F9020008C002191A31
:10016000C1024500C20133C5020028B1029011B49A
:100170000102B60300423BB70107E00F1F25220B27
:10018000060A4EC639000000000000E10F1F3F3F85
:100190000F1F0F4649310509031C1A00F1083604E8
:1001A000003C0F0FA402F20918A312023212FF3210
:1001B00000F4054000089104F80221043601483A91
:1001C000015511007F7829002E018929018F2B010B
:1001D00002E20100E40101E50110E60101E701107E
:1001E000E80170F20100EA0100EB0120EC013CEDB6
:1001F00001C8E90138F101011B011A1A01012401AA
:100200006125015C2301881801361901011F01884D
:100210007F051F01807F051F01907F051F01D47F8F
:10022000051701053601002801387F2828013C0206
:1002300001000301000401000501EF0601000701B0
:100240000008010109013F0100B903FF83577FFA4C
:10025000B30400000606B60125B00168CC0105B163
:100260000600151C1C83AAC0065050013C1E08B491
:10027000070240002A2A0D783A01553601C035019F
:10028000004402000211007F9629007F3201007FA6
:10029000322800F603010100CF03008130ED046431
:1002A000031281E803851078CB05392C003402F75E
:1002B0000120EA020000B00100B40100C00121C128
:1002C0000111C5023F3CC701B53601883A0155B15D
:1002D00002001B360148F20100260101E00F0F2643
:1002E000240B0E0954A8460C17090F0700E10F0054
:1002F000191B0410072A473903060630380FB701C7
:100300000711007F96290000000100FFFF32000165
:100310000000010200000703003010040000000884
:10032000000202090000000A0000000C0000000D9D
:100330000000000F00000010000000110007001274
:1003400000000013000000FFFFC80010009016110D
:10035000002702FFFF320012001A00FFFF320013D5
:1003600000001829002A00FFFF3200300000003191
:100370000000003200000035000602360008083791
:1003800000070038000102390000003C0000003D79
:10039000000000200000002100000050000000517B
:1003A00000EF005200000053003F01600000A76111
:1003B0000003006A0000009000100092000000930B
:1003C000000300950000119700000098000000074E
:1003D00000330100000000240027002A0000000074
:1003E00000250028002B0004040404040404040273
:1003F00002020202020303030303030102040810C2
:10040000204080010204081020010204081020008E
:1004100000000800020100000304070000000000C3
:1004200000000000000000003E5B4F5B3E3E6B4F53
:100430006B3E1C3E7C3E1C183C7E3C181C577D5776
:100440001C1C5E7F5E1C00183C1800FFE7C3E7FF22
:100450000018241800FFE7DBE7FF30483A060E26B5
:1004600029792926407F050507407F05253F5A3C0D
:10047000E73C5A7F3E1C1C08081C1C3E7F14227F50
:1004800022145F5F005F5F06097F017F0066899528
:100490006A606060606094A2FFA29408047E040811
:1004A00010207E201008082A1C08081C2A08081E94
:1004B000101010100C1E0C1E0C30383E3830060E7A
:1004C0003E0E06000000000000005F000000070074
:1004D0000700147F147F14242A7F2A122313086430
:1004E0006236495620500008070300001C224100D4
:1004F0000041221C002A1C7F1C2A08083E08080014
:1005000080703000080808080800006060002010B3
:100510000804023E5149453E00427F40007249496D
:1005200049462141494D331814127F10274545454E
:10053000393C4A494931412111090736494949366F
:10054000464949291E000014000000403400000004
:100550000814224114141414140041221408020136
:100560005909063E415D594E7C1211127C7F494962
:1005700049363E414141227F4141413E7F494949FF
:10058000417F090909013E414151737F0808087FF5
:1005900000417F41002040413F017F081422417FFC
:1005A000404040407F021C027F7F0408107F3E4194
:1005B00041413E7F090909063E4151215E7F0919EB
:1005C0002946264949493203017F01033F40404003
:1005D0003F1F2040201F3F4038403F6314081463F2
:1005E00003047804036159494D43007F41414102AE
:1005F00004081020004141417F04020102044040F0
:10060000404040000307080020545478407F2844AD
:1006100044383844444428384444287F3854545497
:100620001800087E090218A4A49C787F08040478A6
:1006300000447D40002040403D007F1028440000E1
:10064000417F40007C047804787C080404783844B6
:10065000444438FC1824241818242418FC7C08046A
:100660000408485454542404043F44243C4040208B
:100670007C1C2040201C3C4030403C442810284436
:100680004C9090907C4464544C44000836410000E7
:1006900000770000004136080002010204023C26F7
:1006A00023263C1EA1A161123A4040207A385454BE
:1006B0005559215555794121545478412155547843
:1006C0004020545579400C1E5272123955555559D7
:1006D000395454545939555454580000457C4100FC
:1006E00002457D420001457C40F0292429F0F02894
:1006F0002528F07C545545002054547C547C0A092C
:100700007F4932494949323248484832324A48489A
:10071000303A4141217A3A42402078009DA0A07DA4
:1007200039444444393D4040403D3C24FF24244862
:100730007E4943662B2FFC2F2BFF0929F620C0880A
:100740007E090320545479410000447D41304848DB
:100750004A32384040227A007A0A0A727D0D1931F5
:100760007D2629292F28262929292630484D402051
:10077000380808080808080808382F10C8ACBA2F2D
:10078000102834FA00007B000008142A14222214D6
:100790002A1408AA005500AAAA55AA55AA000000C2
:1007A000FF00101010FF00141414FF001010FF00C1
:1007B000FF1010F010F0141414FC001414F700FFD4
:1007C0000000FF00FF1414F404FC141417101F1091
:1007D000101F101F1414141F00101010F000000040
:1007E000001F101010101F10101010F0100000004B
:1007F000FF101010101010101010FF10000000FF5C
:10080000140000FF00FF00001F10170000FC04F49C
:1008100014141710171414F404F40000FF00F71454
:10082000141414141414F700F714141417141010DB
:100830001F101F141414F4141010F010F000001FF7
:10084000101F0000001F14000000FC140000F01036
:10085000F01010FF10FF141414FF141010101F00DC
:10086000000000F010FFFFFFFFFFF0F0F0F0F0FFDE
:10087000FFFF0000000000FFFF0F0F0F0F0F3844B5
:100880004438447C2A2A3E147E02020606027E0276
:100890007E0263554941633844443C04407E201E37
:1008A0002006027E020299A5E7A5991C2A492A1C66
:1008B0004C7201724C304A4D4D303048784830BC53
:1008C000625A463D3E494949007E0101017E2A2A7D
:1008D0002A2A2A44445F444440514A444040444AFE
:1008E00051400000FF0103E080FF000008086B6B2F
:1008F000083612362436060F090F060000181800B5
:1009000000001010003040FF0101001F01011E0017
:10091000191D1712003C3C3C3C00000000009123D4
:1009200011241FBECFEFD8E0DEBFCDBF11E0A0E0A5
:10093000B1E0ECE8FDE402C005900D92AA35B107E4
:10094000D9F721E0AAE5B1E001C01D92A33CB207AE
:10095000E1F714E0C0E9D4E004C02197FE010E9451
:10096000B926CF38D107C9F70E94911B0C94C42631
:100970000C9400008091700180936F0110927001BF
:100980000895CF93DF93FC01A6A5B7A59C9182ADF6
:1009900089238C93A0A9B1A99C9183AD89238C93C1
:1009A0008BB18370972F9C7F892B8BB985B18C7FFE
:1009B000972F9370892B85B9A2A9B3A99C9184AD77
:1009C00089238C93A2A9B3A99C9180AD892B8C9388
:1009D0008BB18370962F9C7F892B8BB985B18C7FCF
:1009E000962F9370892B85B9A2A9B3A99C9184AD48
:1009F00089238C93A2A9B3A99C9180AD892B8C9358
:100A0000A0A9B1A99C9187A9892B8C93DA013FEF0A
:100A1000320F12160CF05FC08D919BB19370282F8E
:100A20002C7F922B9BB995B19C7F8370892B85B9C4
:100A3000C2A9D3A9988184AD89238883C2A9D3A9E7
:100A4000988180AD892B8883311102C0232FDFCF9D
:100A5000808D918D0197D1F76F5F7F4FC0A9D1A98C
:100A6000988183AD892388838BB18370972F9C7F76
:100A7000892B8BB985B18C7F972F9370892B85B982
:100A8000C2A9D3A9988184AD89238883C2A9D3A997
:100A9000988180AD892B88838BB18370962F9C7F42
:100AA000892B8BB985B18C7F962F9370892B85B953
:100AB000C2A9D3A9988184AD89238883C2A9D3A967
:100AC000988180AD892B8883C0A9D1A9988187A9F5
:100AD000892B8883BBCFA6A5B7A59C9186A9892B16
:100AE0008C93DF91CF9108959F92AF92BF92CF9256
:100AF000DF92EF92FF920F931F93CF93DF93CDB7C7
:100B0000DEB728970FB6F894DEBF0FBECDBF7C01CD
:100B1000DC019E96ED91FC919F979081DA968C91E5
:100B2000DA978923808358968D919C9159970097E5
:100B300009F0F8C356968D919C9157978230910594
:100B4000C1F08330910589F1019709F043C01E96E9
:100B50008D919C911F970197DC01A01BB10BFC01AB
:100B6000E41BF50BAF01CB019E2EF52F89019A01F5
:100B700019C0D7011E968D919C911F970197DC019A
:100B8000A21BB30B9C01261B370BF70180899189AF
:100B90000197BC01601B710B8C01041B150BC80174
:100BA000922EF32FAB01BD0118C0D70150968D9145
:100BB0009C9151970197DC01A21BB30BFC01E61B32
:100BC000F70BBF01CF01942EF52F98018B01BA01CD
:100BD000AD0103C0CA01962EF72FD701D096CD9054
:100BE000DC90D197D601EC91D701DB96BC90EB213C
:100BF000D601EC93ABB1A370ABB9A5B1AC7FA5B9ED
:100C0000D701D296CD90DC90D397D601EC91D70145
:100C1000DC96BC90EB21D601EC93D701D296CD9017
:100C2000DC90D397D601EC91D701D896BC90EB29F4
:100C3000D601EC93ABB1A370A065ABB9A5B1AC7F05
:100C4000A5B9D701D296CD90DC90D397D601EC917F
:100C5000D701DC96BC90EB21D601EC93D701D2965C
:100C6000CD90DC90D397D601EC91D701D896BC906B
:100C7000EB29D601EC93D701D096CD90DC90D1979B
:100C8000D601EC91D701D796BC90EB29D601EC9315
:100C9000ABB1A370B72FBC7FAB2BABB9B5B1BC7FE9
:100CA000A72FA3707B2F7A2B75B9D701D296AD9061
:100CB000BC90D397D501DC90D701DC967C917D2147
:100CC000D5017C93D701D296AD90BC90D397D50136
:100CD000DC90D701D8967C917D29D5017C937BB19E
:100CE0007370A62FAC7F7A2B7BB975B17C7F637054
:100CF000672B65B9D701D296CD90DC90D397D601FA
:100D00007C91D701DC966C916723D6016C93D70157
:100D1000D296CD90DC90D397D6017C91D701D8960E
:100D20006C91672BD6016C93D701D096CD90DC9057
:100D3000D197D6017C91D701DB966C916723D601C0
:100D40006C936BB163706BB965B16C7F65B9D7019A
:100D5000D296CD90DC90D397D6017C91D701DC96CA
:100D60006C916723D6016C93D701D296CD90DC901D
:100D7000D397D6017C91D701D8966C91672BD60179
:100D80006C936BB1637060656BB965B16C7F6160CA
:100D900065B9D701D296CD90DC90D397D6017C91DE
:100DA000D701DC966C916723D6016C93D701D2965C
:100DB000CD90DC90D397D6017C91D701D8966C91D9
:100DC000672BD6016C93D701D096CD90DC90D1974C
:100DD000D6017C91D701D7966C91672BD6016C9385
:100DE0006BB16370732F7C7F672B6BB975B17C7FA0
:100DF000632F6370372F362B35B9D701D296CD903C
:100E0000DC90D397D6016C91D701DC963C913623C8
:100E1000D6013C93D701D296CD90DC90D397D601E2
:100E20006C91D701D8963C91362BD6013C933BB1BF
:100E30003370622F6C7F362B3BB935B13C7F23700A
:100E4000232B25B9D701D2966D917C91D397DB01E5
:100E50003C91D701DC962C912323DB012C93D70105
:100E6000D2966D917C91D397DB013C91D701D896B6
:100E70002C91232BDB012C93D701D0966D917C9183
:100E8000D197DB013C91D701DB962C912323DB0129
:100E90002C932BB123702BB925B12C7F25B9D70109
:100EA000D2966D917C91D397DB013C91D701DC9672
:100EB0002C912323DB012C93D701D2966D917C9149
:100EC000D397DB013C91D701D8962C91232BDB01E2
:100ED0002C932BB1237020652BB925B12C7F226078
:100EE00025B9D701D2966D917C91D397DB013C91C6
:100EF000D701DC962C912323DB012C93D701D296CA
:100F00006D917C91D397DB013C91D701D8962C91C0
:100F1000232BDB012C93D701D0966D917C91D19737
:100F2000DB013C91D701D7962C91232BDB012C932D
:100F30002BB12370352F3C7F232B2BB925B12C7F70
:100F4000352F3370232B25B9D701D2966D917C9123
:100F5000D397DB013C91D701DC962C912323DB0155
:100F60002C93D701D2966D917C91D397DB013C9164
:100F7000D701D8962C91232BDB012C932BB1237016
:100F8000342F3C7F232B2BB925B12C7F4370422B70
:100F900045B9D701D2964D915C91D397DA013C9136
:100FA000D701DC962C912323DA012C93D701D2961A
:100FB0004D915C91D397DA013C91D701D8962C9151
:100FC000232BDA012C93D701D0964D915C91D197C8
:100FD000DA013C91D701DB962C912323DA012C9383
:100FE0002BB123702BB925B12C7F25B9D701D2960F
:100FF0004D915C91D397DA013C91D701DC962C910D
:101000002323DA012C93D701D2964D915C91D3978B
:10101000DA013C91D701D8962C91232BDA012C933D
:101020002BB1237020652BB925B1236025B9D701D9
:10103000D2964D915C91D397DA013C91D701DC9621
:101040002C912323DA012C93D701D2964D915C91F8
:10105000D397DA013C91D701D8962C91232BDA0152
:101060002C93D701D0964D915C91D197DA013C91A8
:10107000D701D7962C91232BDA012C932BB1237017
:10108000312F3C7F232B2BB925B12C7F312F33708F
:10109000232B25B9D701D2964D915C91D397DA01D4
:1010A0003C91D701DC962C912323DA012C93D701B4
:1010B000D2964D915C91D397DA013C91D701D896A5
:1010C0002C91232BDA012C932BB12370302F3C7FF2
:1010D000232B2BB925B12C7F0370022B05B9D70127
:1010E000D2964D915C91D397DA013C91D701DC9671
:1010F0002C912323DA012C93D701D2964D915C9148
:10110000D397DA013C91D701D8962C91232BDA01A1
:101110002C93D701D0964D915C91D197DA013C91F7
:10112000D701DB962C912323DA012C932BB123706A
:101130002BB925B12C7F25B9D701D2964D915C9161
:10114000D397DA013C91D701DC962C912323DA0165
:101150002C93D701D2964D915C91D397DA013C91B3
:10116000D701D8962C91232BDA012C932BB1237025
:1011700020622BB925B12C7F25B9D701D2964D918C
:101180005C91D397DA013C91D701DC962C91232313
:10119000DA012C93D701D2964D915C91D397DA0165
:1011A0003C91D701D8962C91232BDA012C93D701AF
:1011B000D0964D915C91D197DA013C91D701D796A9
:1011C0002C91232BDA012C932BB123703F2F3C7FE2
:1011D000232B2BB925B12C7FF370F22BF5B9F70136
:1011E000A2A9B3A93C9124AD23232C93A2A9B3A90E
:1011F0003C9120AD232B2C932BB12370392D3C7FB8
:10120000232B2BB925B12C7FE92DE370E22BE5B917
:10121000D701D296ED91FC91D3973081DC962C9139
:10122000DC9723232083D296ED91FC91D3973081D4
:10123000D8962C91D897232B2083D096ED91FC91B2
:10124000D1973081DB962C91DB97232320832BB120
:1012500023702BB925B12C7F25B9D296ED91FC9145
:10126000D3973081DC962C91DC9723232083D29670
:10127000ED91FC91D3973081D8962C91D897232B60
:1012800020832BB1237020622BB925B12C7F2160E4
:1012900025B9D296ED91FC91D3973081DC962C91B3
:1012A000DC9723232083D296ED91FC91D397308154
:1012B000D8962C91D897232B2083D096ED91FC9132
:1012C000D1973081D7962C91D797232B20832BB1A0
:1012D0002370392F3C7F232B2BB925B12C7F9370A2
:1012E000922B95B9D296ED91FC91D3972081DC9603
:1012F0009C91DC9792239083D296ED91FC91D397A9
:101300002081D8969C91D897922B90839BB1937013
:10131000282F2C7F922B9BB995B19C7F8370892BB2
:1013200085B966C2019709F077C2D701D096ED91D1
:10133000FC91D1979081DB968C91DB9789238083F8
:101340008BB183708BB985B18C7F826085B9D29661
:10135000ED91FC91D3979081DC968C91DC97892359
:101360008083D296ED91FC91D3979081D8968C9101
:10137000D897892B8083D096ED91FC91D19790815D
:10138000D7968C91D797892B80838BB18370972FB9
:101390009C7F892B8BB985B18C7F972F9370892B7C
:1013A00085B9D296ED91FC91D3979081DC968C9182
:1013B000DC9789238083D296ED91FC91D39790811D
:1013C000D8968C91D897892B8083D096ED91FC91FB
:1013D000D1979081DB968C91DB97892380838BB1A9
:1013E00083708BB985B1836085B9D296ED91FC91FC
:1013F000D3979081DC968C91DC9789238083D29659
:10140000ED91FC91D3979081D8968C91D897892BA8
:101410008083D096ED91FC91D1979081D7968C9155
:10142000D797892B80838BB18370962F9C7F892BD4
:101430008BB985B18C7F6370682B65B9D296ED91BD
:10144000FC91D3979081DC968C91DC9789238083E3
:10145000D296ED91FC91D3979081D8968C91D897A4
:10146000892B8083D096ED91FC91D1979081DB966A
:101470008C91DB97892380838BB1837084608BB9D7
:1014800085B18C7F826085B9D296ED91FC91D3971E
:101490009081DC968C91DC9789238083D296ED91A4
:1014A000FC91D3979081D8968C91D897892B808383
:1014B000D096ED91FC91D1979081D7968C91D7974A
:1014C000892B80838BB18370952F9C7F892B8BB95F
:1014D00085B18C7F952F9370892B85B9D296ED912C
:1014E000FC91D3979081DC968C91DC978923808343
:1014F000D296ED91FC91D3979081D8968C91D89704
:10150000892B8083D096ED91FC91D1979081DB96C9
:101510008C91DB97892380838BB1837084608BB936
:1015200085B1836085B9D296ED91FC91D397908176
:10153000DC968C91DC9789238083D296ED91FC9187
:10154000D3979081D8968C91D897892B8083D09609
:10155000ED91FC91D1979081D7968C91D797892B5B
:1015600080838BB18370942F9C7F892B8BB985B13D
:101570008C7F4370482B45B9D296ED91FC91D3975F
:101580009081DC968C91DC9789238083D296ED91B3
:10159000FC91D3979081D8968C91D897892B808392
:1015A000D096ED91FC91D1979081DB968C91DB9751
:1015B000892380838BB1837084608BB985B18C7FE4
:1015C00085B9D296ED91FC91D3979081DC968C9160
:1015D000DC9789238083D296ED91FC91D3979081FB
:1015E000D8968C91D897892B8083D096ED91FC91D9
:1015F000D1979081D7968C91D797892B80838BB187
:101600008370932F9C7F892B8BB985B18C7F932F0F
:101610009370892B85B9D296ED91FC91D3979081E7
:10162000DC968C91DC9789238083D296ED91FC9196
:10163000D3979081D8968C91D897892B8083D09618
:10164000ED91FC91D1979081DB968C91DB9789236A
:1016500080838BB1837084608BB985B18C7F81600E
:1016600085B9D296ED91FC91D3979081DC968C91BF
:10167000DC9789238083D296ED91FC91D39790815A
:10168000D8968C91D897892B8083D096ED91FC9138
:10169000D1979081D7968C91D797892B80838BB1E6
:1016A0008370922F9C7F892B8BB985B18C7F23709F
:1016B000282B25B9D296ED91FC91D3979081DC9699
:1016C0008C91DC9789238083D296ED91FC91D397FE
:1016D0009081D8968C91D897892B8083D096ED9164
:1016E000FC91D1979081DB968C91DB978923808345
:1016F0008BB1837088608BB985B18C7F85B9D296A8
:10170000ED91FC91D3979081DC968C91DC978923A5
:101710008083D296ED91FC91D3979081D8968C914D
:10172000D897892B8083D096ED91FC91D1979081A9
:10173000D7968C91D797892B80838BB18370912F0B
:101740009C7F892B8BB985B18C7F912F9370892BCE
:1017500085B9D296ED91FC91D3979081DC968C91CE
:10176000DC9789238083D296ED91FC91D397908169
:10177000D8968C91D897892B8083D096ED91FC9147
:10178000D1979081DB968C91DB97892380838BB1F5
:10179000837088608BB985B18C7F816085B9D29662
:1017A000ED91FC91D3979081DC968C91DC97892305
:1017B0008083D296ED91FC91D3979081D8968C91AD
:1017C000D897892B8083D096ED91FC91D197908109
:1017D000D7968C91D797892B80838BB18370902F6C
:1017E0009C7F892B8BB985B18C7F0370082B05B941
:1017F000D296ED91FC91D3979081DC968C91DC97F9
:1018000089238083D296ED91FC91D3979081D896CD
:101810008C91892B80831EC07D836E833F832887B4
:1018200059834A831B830C83F701648D758D24E0F3
:10183000AE014B5F5F4FC7010E94C104D7015E96A6
:101840006D917C915F9724E0AE014F5F5F4FC701C0
:101850000E94C104D7019E96ED91FC919F979081C3
:10186000D6968C91892B808328960FB6F894DEBF8C
:101870000FBECDBFDF91CF911F910F91FF90EF90E1
:10188000DF90CF90BF90AF909F900895FC01848926
:1018900095890895FC018289938908954F925F92FA
:1018A0006F927F928F929F92AF92BF92CF92DF9270
:1018B000EF92FF920F931F93CF93DF93EC014A01B6
:1018C000270137FF05C0620F731F3195219531093C
:1018D0007B01E20EF31E5B0177FF02C0A12CB12C4D
:1018E000E881F9810684F785E02DCE0109958E15F2
:1018F0009F0544F4E881F9810684F785E02DCE0147
:1019000009957C0137016A187B0817FF05C0800E16
:10191000911E119501951109080D191D97FE02C020
:10192000812C912CE881F9810484F585E02DCE018C
:1019300009958017910744F4E881F9810484F585BD
:10194000E02DCE0109958C016801C818D908015015
:101950001109970121503109E881F9810680F78149
:10196000E02DA401B501CE010995EEA5FFA590815A
:101970008AAD89238083888D998D892BF1F4E8A91C
:10198000F9A990818BAD892380838BB183708BB94A
:1019900085B18C7F85B9EAA9FBA990818CAD89239B
:1019A0008083EAA9FBA9908188AD892B8083E8A96F
:1019B000F9A990818FA9892B8083E8A9F9A9908141
:1019C0008BAD892380838BB198A19C7F8370892BF9
:1019D0008BB985B198A193708C7F892B85B9EAA9C1
:1019E000FBA990818CAD89238083EAA9FBA9908112
:1019F00088AD892B8083E8A9F9A990818FA9892BCB
:101A000080836C147D042CF4962D872D3601C92E0D
:101A1000D82E952D9C7F452D4370542D5C7F642DD1
:101A200063701C141D0484F593018BB18370892BA2
:101A30008BB985B18C7F842B85B9EAA9FBA970810C
:101A40008CAD87238083EAA9FBA9708188AD872BA1
:101A500080838BB18370852B8BB985B18C7F862B6E
:101A600085B9EAA9FBA970818CAD87238083EAA997
:101A7000FBA9708188AD872B808321503109A9F69D
:101A800081E0C81AD108CDCF888D998D0097A1F437
:101A90000C891D89015011092A893B89215031097E
:101AA000E881F9810680F781E02D40E050E060E0B8
:101AB00070E0CE01099501C1019709F0FEC0EEA5C5
:101AC000FFA590818AAD89238083E8A9F9A9908137
:101AD0008BAD892380838BB1837084608BB985B192
:101AE0008C7F85B9EAA9FBA990818CAD892380837D
:101AF000EAA9FBA9908188AD892B8083E8A9F9A97F
:101B000090818FA9892B80838BB12A893B892150B1
:101B10003109932F9C7F8370892B8BB985B12A89DA
:101B20003B8921503109932F93708C7F892B85B984
:101B3000EAA9FBA990818CAD89238083EAA9FBA93E
:101B4000908188AD892B8083E8A9F9A990818BAD1C
:101B5000892380838BB1837084608BB985B18C7F3E
:101B6000816085B9EAA9FBA990818CAD8923808326
:101B7000EAA9FBA9908188AD892B8083E8A9F9A9FE
:101B800090818FA9892B80839BB18A8981508C7F1A
:101B90009370892B8BB995B18A89815083709C7F12
:101BA000892B85B9EAA9FBA990818CAD8923808313
:101BB000EAA9FBA9908188AD892B8083E8A9F9A9BE
:101BC00090818BAD892380838BB1837088608BB9C2
:101BD00085B18C7F85B9EAA9FBA990818CAD892359
:101BE0008083EAA9FBA9908188AD892B8083E8A92D
:101BF000F9A990818FA9892B80838BB12C893D898C
:101C000021503109932F9C7F8370892B8BB985B12B
:101C10002C893D8921503109932F93708C7F892B1A
:101C200085B9EAA9FBA990818CAD89238083EAA9B3
:101C3000FBA9908188AD892B8083E8A9F9A99081BF
:101C40008BAD892380838BB1837088608BB985B11C
:101C50008C7F816085B9EAA9FBA990818CAD89232D
:101C60008083EAA9FBA9908188AD892B8083E8A9AC
:101C7000F9A990818FA9892B80839BB18C89815090
:101C80008C7F9370892B8BB995B18C89815083702F
:101C90009C7F892B85B9EAA9FBA990818CAD89230A
:101CA0008083EAA9FBA9908188AD892B8083EEA56A
:101CB000FFA590818EA9892B8083EEA5FFA5908139
:101CC0008EA9892B8083DF91CF911F910F91FF9077
:101CD000EF90DF90CF90BF90AF909F908F907F90CC
:101CE0006F905F904F900895AF92BF92CF92DF9226
:101CF000EF92FF920F931F93CF93DF9377FDA1C0D5
:101D000057FD9FC0E32EF22E5A016B01EC01E881D2
:101D1000F9810684F785E02D09958C159D050CF455
:101D200090C0E881F9810484F585E02DCE01099504
:101D30008A159B050CF485C0E881F9810680F7813E
:101D4000E02D85019601A501B601CE010995EEA50C
:101D5000FFA590818AAD8923808388A199A1E8A9F4
:101D6000F9A930812BAD232320832BB12370392F88
:101D70003C7F232B2BB925B12C7F9370922B95B9E7
:101D8000EAA9FBA920819CAD92239083EAA9FBA933
:101D9000208198AD922B90839BB19370282F2C7F3C
:101DA000922B9BB995B19C7F8370892B85B9EAA949
:101DB000FBA990818CAD89238083EAA9FBA990813E
:101DC00088AD892B8083E8A9F9A990818FA9892BF7
:101DD00080838BB183709E2D9C7F892B8BB985B1BD
:101DE0008C7F3E2D3370E82EE32AE5B8EAA9FBA9E3
:101DF00090818CAD89238083EAA9FBA9908188AD6D
:101E0000892B80838BB183709F2D9C7F892B8BB90D
:101E100085B18C7F2F2D2370F82EF22AF5B8EAA910
:101E2000FBA990818CAD89238083EAA9FBA99081CD
:101E300088AD892B8083EEA5FFA590818EA9892B83
:101E40008083DF91CF911F910F91FF90EF90DF90F2
:101E5000CF90BF90AF9008958F929F92AF92BF9214
:101E6000CF92DF92EF92FF920F931F93CF93DF9366
:101E7000EC01490198010E9D60010F9DD00C1E9D43
:101E8000D00C11248701040F151F01501109260FD2
:101E9000371F21503109E881F9810680F781E02D53
:101EA00009951C141D040CF069C1EEA5FFA59081D5
:101EB0008AAD89238083E8A9F9A990818BAD892314
:101EC00080838AA19BA12BB12370392F3C7F232BC8
:101ED0002BB925B12C7F9370922B95B9EAA9FBA958
:101EE00020819CAD92239083EAA9FBA9208198AD23
:101EF000922B90839BB19370282F2C7F922B9BB9B0
:101F000095B19C7F8370892B85B9EAA9FBA9908143
:101F10008CAD89238083EAA9FBA9908188AD892BA8
:101F20008083E8A9F9A990818FA9892B80838AB140
:101F300083708AB984B18C7F84B9888D998D892BFF
:101F400009F076C0F40142E050E0ACA9BDA99C9133
:101F50008DAD89238C9300C000C000C0000089B102
:101F600083B1ACA9BDA99C9189AD892B8C93ACA9F7
:101F7000BDA99C918DAD89238C9300C000C000C089
:101F8000000089B183B1ACA9BDA99C9189AD892B11
:101F90008C93ACA9BDA99C918DAD89238C9300C075
:101FA00000C000C0000089B193B1ACA9BDA93C91AB
:101FB00029AD232B2C93ACA9BDA93C912DAD232396
:101FC0002C9300C000C000C0000039B123B1ACA9FF
:101FD000BDA97C9169AD672B6C934150510909F003
:101FE000B4CF482F4C7F892F8370842B90E0982F9B
:101FF00088273C7F2370232B822B8193919381E050
:10200000C81AD10809F09FCF0C891D890150110908
:102010002A893B8921503109E881F9810680F781BD
:10202000E02D40E050E060E070E0CE0109959AC0FC
:10203000ECA9FDA990818DAD8923808300C000C0EB
:1020400000C0000089B183B1ECA9FDA9908189ADE0
:10205000892B808384018CA59DA58130910509F091
:1020600048C0ECA9FDA990818DAD8923808300C073
:1020700000C000C0000069B183B1ECA9FDA92081B6
:1020800099AD922B9083ECA9FDA920819DAD92235F
:10209000908300C000C000C0000049B193B1ECA91A
:1020A000FDA9308129AD232B2083ECA9FDA9308126
:1020B0002DAD2323208300C000C000C0000039B133
:1020C00023B1ECA9FDA9708159AD572B50833C7FFA
:1020D0002370232B4C7F9370492B6C7F8370682B6C
:1020E000E881F9810190F081E02DCE0109955C0134
:1020F00030C0892B71F5ECA9FDA990818DAD8923A4
:10210000808300C000C000C0000029B193B1ECA9D9
:10211000FDA9308189AD832B8083ECA9FDA9308195
:102120008DAD8323808300C000C000C0000089B152
:1021300033B133708C7FA32EA82AECA9FDA930817E
:1021400089AD832B80832C7F892F8370822BB12CC8
:10215000B82AF801A192B1928F01F1E0CF1AD1080B
:1021600009F079CFEEA5FFA590818EA9892B8083F8
:102170008AB18C6F8AB984B1836084B980E090E0C1
:10218000DF91CF911F910F91FF90EF90DF90CF9053
:10219000BF90AF909F908F9008954C7F38E0439F01
:1021A000C0011124269526952695822B687F962BB3
:1021B00008950F93CF93DF93DC0101709E96ED910C
:1021C000FC919F979081DA968C91DA97892380838E
:1021D000222309F46CC058968D919C915997892BB4
:1021E00071F5D096ED91FC91D1979081DB968C9111
:1021F000DB97892380838BB183708BB985B18C7F0A
:1022000085B9D296ED91FC91D3979081DC968C9113
:10221000DC9789238083D296ED91FC91D3979081AE
:10222000D8968C91D897892B8083D096ED91FC918C
:10223000D1979081D7968C91D797892B8083D09610
:10224000ED91FC91D1979081DB968C91DB9789235E
:1022500080838BB190969C9190979C7F8370892B03
:102260008BB985B190969C91909793708C7F892BB8
:1022700085B9D296ED91FC91D3979081DC968C91A3
:10228000DC9789238083D296ED91FC91D39790813E
:10229000D8968C91D897892B8083D096ED91FC911C
:1022A000D1979081D7968C91D797892B80839A016B
:1022B000EB01121613060CF04AC0002321F0FE01B8
:1022C0008591949102C0888199814BB14370592FB7
:1022D0005C7F452B4BB945B14C7F9370942B95B9DE
:1022E000D296ED91FC91D3974081DC969C91DC973E
:1022F00094239083D296ED91FC91D3974081D89608
:102300009C91D897942B90839BB19370482F4C7FCE
:10231000942B9BB995B19C7F8370892B85B9D296FC
:10232000ED91FC91D3979081DC968C91DC97892379
:102330008083D296ED91FC91D3979081D8968C9121
:10234000D897892B8083215031092296B2CF9E964F
:10235000ED91FC919F979081D6968C91892B8083EB
:10236000DF91CF910F9108950E94BF261F920F9287
:102370000FB60F9211242F933F934F935F936F9358
:102380007F938F939F93AF93BF93EF93FF9380912E
:102390006001909161018093B200809163019091FE
:1023A0006401A0916501B09166010196A11DB11D66
:1023B0008093630190936401A0936501B0936601DB
:1023C0008091630190916401A0916501B0916601D3
:1023D00040915C0150915D0160915E0170915F01DF
:1023E00084179507A607B70710F180916201811144
:1023F0001EC081E08093620180916301909164012D
:10240000A0916501B0916601841B950BA60BB70BDB
:102410008093630190936401A0936501B09366017A
:10242000E0915A01F0915B01099510926201FF91D0
:10243000EF91BF91AF919F918F917F916F915F913C
:102440004F913F912F910F900FBE0F901F901895B5
:10245000CF93DF9300D01F92CDB7DEB760E084E06A
:1024600090E00E94701A892B41F461E084E090E0D2
:102470000E94701A81159048F9F061E083ED90E0B8
:102480000E94701A813423E9920769F0863824E9A2
:10249000920761F08838944961F060E080E090E054
:1024A0000E94701A27C081E493E924C086E894E969
:1024B00021C088E894E91EC0809115019091160111
:1024C000A091170189839A83AB8323E0AE014F5F0C
:1024D0005F4F69EB70E08BE791E00E94C10460E020
:1024E00080ED90E00E94701A61E080ED90E00E9423
:1024F000701AC3CF0F900F900F90DF91CF91089576
:102500002F923F924F925F926F927F928F929F9203
:10251000AF92BF92CF92DF92EF92FF920F931F93F1
:10252000CF93DF93CDB7DEB760970FB6F894DEBFD9
:102530000FBECDBF2C01CB018E509742029740F5C4
:10254000F20101900020E9F73197E419F509809133
:10255000870126E0829FC00111248E9F90018F9FEA
:10256000300D9E9F300D112480918D0190918E0130
:10257000821B930B6E30774241F4BC0197FF02C07F
:102580006F5F7F4F7595679503C0BC0161507109FE
:1025900070937E0160937D015093800140937F0191
:1025A000598648864885598544195509E885F9852D
:1025B0002191F987E887922F222309F4D9C02A3084
:1025C000A1F42091870180917F0190918001F8E032
:1025D0002F9F800D911D11249093800180937F0186
:1025E00010927E0110927D01DDCF2D30D9F2209125
:1025F0007D0130917E013C872B8720918D013091A8
:102600008E014B855C854217530784F0209187012A
:1026100080917D0190917E0156E0259F800D911D56
:10262000112490937E0180937D01BCCF20907F0187
:102630003090800120918F01309190012216330655
:102640002CF7809187018A83C82ED12C2B853C855D
:10265000E6E08E9F200D311D112412161306B4F6EC
:10266000960183E0220F331F8A95E1F7220D331D77
:10267000121613065CF6903B08F09F5F20918801CC
:102680002A8740918301509184015D834C83E091BE
:102690008101F0918201FF83EE83F5E09F9FC001ED
:1026A00011242B853C85388B2F8739011982AC0189
:1026B000421B530B5C874B87C10108969E878D8711
:1026C0009981953049F0EB85FC85E60DF71DED5DB0
:1026D000FB4F24912B8301C01B82410151013B819F
:1026E00030FF09C04A81413019F42E813F8111C069
:1026F000EE80FF8017C08C819D81EE81FF818E1757
:102700009F07C9F0FA85F11116C02A81213041F4E2
:102710009C01A501B3018BE791E00E94740E0BC0F0
:10272000EC80FD8086019601A4016F8578898BE796
:1027300091E00E944E0C3B8136953B834FEFA41AEB
:10274000B40A8C0C9D1C8D859E858A159B0539F6D7
:1027500099819F5F9983EFEF6E1A7E0A2F853889E2
:102760002C0D3D1D388B2F87963009F0A9CF4ECF09
:10277000CA0160960FB6F894DEBF0FBECDBFDF91E1
:10278000CF911F910F91FF90EF90DF90CF90BF906E
:10279000AF909F908F907F906F905F904F903F9001
:1027A0002F9008952F923F924F925F927F928F9237
:1027B0009F92AF92BF92CF92DF92EF92FF920F93D0
:1027C0001F93CF93DF93CDB7DEB76B970FB6F89417
:1027D000DEBF0FBECDBF6A0159019E012F5F3F4F83
:1027E00079012BE1F70111922A95E9F7611571053D
:1027F0008105910551F480E38A8F712C882483949C
:10280000912C8E01065E1F4F35C097FF0AC0909530
:102810008095709561957F4F8F4F9F4F772473946C
:1028200001C0712C8E01055E1F4F812C912C2AE076
:10283000222E312C412C512CFAE08F169104F1F10B
:10284000A20191010E944E24605DF80162938F0104
:10285000B901CA01FFEF8F1A9F0A61157105810541
:10286000910551F7772031F0F8018DE282938F01C5
:1028700077247394872D90E09C01280D391D243016
:102880003105F4F425E030E028193909281B390B0B
:102890002150310940E050E060E34217530734F41F
:1028A000F80162938F014F5F5F4FF7CF809590954E
:1028B00088199909821B930B4B9609C07110D4CFCC
:1028C0008BE190E088199909871991090197D7013F
:1028D000A80FB91FF7012BE130E0A901481B590BE4
:1028E000CA019F012E193F092817390718F42D91A5
:1028F0002193F7CFF701E80FF91F1082A501B60168
:10290000C7010E9480126B960FB6F894DEBF0FBE0F
:10291000CDBFDF91CF911F910F91FF90EF90DF908E
:10292000CF90BF90AF909F908F907F905F904F908F
:102930003F902F900895CF93DF93BC01EC01229636
:1029400041E0A991B991942F9B01290F311D290FC5
:10295000311DF901329720813181A217B30724F488
:1029600033832283915081F7FB01E90FF11DE90FB9
:10297000F11DB183A0834F5F433019F7DF91CF91F1
:1029800008952F923F924F925F926F927F928F9213
:102990009F92AF92BF92CF92DF92EF92FF920F93EE
:1029A0001F93CF93DF93EC018B017A015901A61A93
:1029B000B70AB7FE03C0B194A194B10847018C1ABD
:1029C0009D0A97FE03C09194819491088A149B04F8
:1029D00054F49E2D8F2D7901292F382F9C2F8D2F68
:1029E000E801092F182FEC16FD0654F4902F812FC3
:1029F0008901292F382F9C2F8D2FE701E92EF82EE2
:102A000027014C1A5D0A3901601A710A77FE03C06A
:102A1000719461947108620157FE03C08FEFC81A68
:102A2000D80AD594C7940217130724F022242A94B5
:102A3000322C03C022242394312CEC16FD06D4F052
:102A400020918501309186018A149B041CF4AE010B
:102A5000B80102C0A801BE018BE791E00E94740E8C
:102A6000C618D708D7FE04C0020D131DC40CD51C10
:102A70002196E3CFDF91CF911F910F91FF90EF90BF
:102A8000DF90CF90BF90AF909F908F907F906F908E
:102A90005F904F903F902F90089590E0FC01E15F90
:102AA000FB4F2491FC01E550FC4F3491FC01E951AE
:102AB000FC4FE491EE2309F43CC0222339F123308A
:102AC00091F038F42130A9F0223001F584B58F7DE2
:102AD00012C0273091F02830A1F02430B9F4809151
:102AE00080008F7D03C0809180008F77809380006D
:102AF0000DC084B58F7784BD09C08091B0008F77F9
:102B000003C08091B0008F7D8093B000F0E0EE0FA5
:102B1000FF1FE352FC4FA591B4919FB7F894611148
:102B200004C08C913095382302C0EC913E2B3C932D
:102B30009FBF0895CF93DF9390E0FC01E550FC4FD9
:102B40002491FC01E951FC4F8491882361F190E0CC
:102B5000880F991FFC01ED52FC4FC591D491FC01E7
:102B6000E352FC4FA591B491611109C09FB7F8944D
:102B70008881209582238883EC912E230BC06230BC
:102B800061F49FB7F8948881322F3095832388832E
:102B9000EC912E2B2C939FBF06C08FB7F894E88141
:102BA0002E2B28838FBFDF91CF910895CF93DF9392
:102BB000EC0161E08AE00E949A15209711F460E030
:102BC00004C0CF3FD10531F461E08AE0DF91CF91BD
:102BD0000C944D15E9E1F4E0E491E330F9F048F4A8
:102BE000E130B9F0E230A1F584B5806284BDC8BDA2
:102BF00034C0E730E9F0E83019F1E43049F580916C
:102C00008000806280938000D0938B00C0938A0004
:102C100024C084B5806884BDC7BD1FC0809180007A
:102C2000806880938000D0938900C093880015C08D
:102C30008091B00080688093B000C093B3000DC055
:102C40008091B00080628093B000C093B40005C052
:102C5000C038D1050CF0B8CFB2CFDF91CF91089535
:102C60008E3008F08E508770806480937C00809155
:102C70007A00806480937A0080917A0086FDFCCF90
:102C8000809178002091790090E0922B08958F92A6
:102C90009F92AF92BF92CF92DF92EF92FF926B0121
:102CA0007C010E94221B4B015C01C114D104E10490
:102CB000F104F1F00E94221BDC01CB018819990973
:102CC000AA09BB09883E9340A105B10570F321E034
:102CD000C21AD108E108F10888EE880E83E0981E38
:102CE000A11CB11CC114D104E104F10419F7DDCF1A
:102CF000FF90EF90DF90CF90BF90AF909F908F901C
:102D00000895DF92EF92FF920F931F93CF93DF937B
:102D1000CDB7DEB768970FB6F894DEBF0FBECDBF54
:102D20008C017B011E141F046CF5F801849131960F
:102D3000D4900E5F1F4F8F3741F46D2D70E080E00F
:102D400090E00E944716D12C16C0202FDE0111966C
:102D5000F801AD019E2F921B9D1520F494919D9337
:102D60003196F8CF0D0D111D682F70E02D2D8BE7DA
:102D700091E00E94C1046D2D70E06E5F7F4FE61AF6
:102D8000F70AD0CF68960FB6F894DEBF0FBECDBF5E
:102D9000DF91CF911F910F91FF90EF90DF900895F9
:102DA000E091A901F091AA0190818091B101892B54
:102DB0008083E091AF01F091B00190818091B401E6
:102DC000892B8083E091AD01F091AE0190818091DB
:102DD000B301892B80838091B901882371F060E071
:102DE0000E944D1562E070E080E090E00E9447167E
:102DF00061E08091B9010E944D15E091A901F09127
:102E0000AA0190818091B50189238083E091AB0173
:102E1000F091AC0190818091B601892380838BB1C0
:102E200083708BB985B18C7F85B9E091AD01F0914C
:102E3000AE0190818091B70189238083E091AD013B
:102E4000F091AE0190818091B301892B808383E062
:102E5000E091AD01F091AE0120819091B7019223F4
:102E60009083E091AD01F091AE0120819091B3018A
:102E7000922B9083815061F7E091A901F091AA0112
:102E800090818091B101892B808308950F931F93C6
:102E9000CF93DF9300D000D000D0CDB7DEB7E82FBE
:102EA000E370F0E0F0939201E0939101282F2170FC
:102EB00080FF05C080918B0190918C0104C08091AE
:102EC000890190918A0190938E0180938D01222334
:102ED00029F08091890190918A0104C080918B0131
:102EE00090918C019093900180938F01E091A901C2
:102EF000F091AA0190818091B50189238083E091AE
:102F00009301F09194018091910190919201A0918F
:102F1000AB01B091AC012091B601309709F075C0BA
:102F200001978330910538F4880F991FFC01E85E02
:102F3000FE4F808101C080E39091A3013091A401F4
:102F40004C9124232C932BB12370432F4C7F242BA3
:102F50002BB925B12C7F3370322B35B9E091AD01FF
:102F6000F091AE0130812091B70123232083E091BD
:102F7000AD01F091AE0130812091B301232B20836C
:102F80002BB12370392F3C7F232B2BB925B12C7FFC
:102F90009370922B95B9E091AD01F091AE01208133
:102FA0009091B70192239083E091AD01F091AE0131
:102FB00020819091B301922B9083E091AB01F0912D
:102FC000AC0120819091B201922B90839BB19370C0
:102FD00090619BB995B19C7F95B9E091AD01F0915D
:102FE000AE0120819091B70192239083E091AD01D1
:102FF000F091AE0120819091B301922B90839BB10F
:1030000093708C7F892B8BB959C1E630F10509F09B
:1030100041C08130910551F038F08230910541F086
:10302000039739F470E605C070ED03C070EA01C083
:1030300070E08C9128232C939BB12091A301822FC7
:103040008C7F9370982B9BB985B123708C7F822BDA
:1030500085B9E091AD01F091AE0190818091B70109
:1030600089238083E091AD01F091AE019081809140
:10307000B301892B8083E091AB01F091AC01908189
:103080008091B201892B80838BB183707C7F782BF8
:103090007BB914C1E830F10509F047C081309105D2
:1030A00051F038F08230910541F0039739F438E25D
:1030B00005C039E003C03BE201C03AE08C9128230F
:1030C0002C939BB12091A301822F8C7F9370982B1E
:1030D0009BB985B123708C7F822B85B9E091AD01BE
:1030E000F091AE0190818091B70189238083E091B6
:1030F000AD01F091AE0190818091B301892B808365
:10310000E091AB01F091AC0190818091B201892BEB
:1031100080838BB18370932F9C7F892B8BB985B172
:103120008C7F3370382B35B9CCC0E530F10509F010
:1031300041C08130910551F038F08230910541F065
:10314000039739F468EA05C068E003C068E701C086
:1031500068EC8C9128232C939BB12091A301822FA2
:103160008C7F9370982B9BB985B123708C7F822BB9
:1031700085B9E091AD01F091AE0190818091B701E8
:1031800089238083E091AD01F091AE01908180911F
:10319000B301892B8083E091AB01F091AC01908168
:1031A0008091B201892B80838BB183706C7F682BF7
:1031B0006BB984C0379709F041C08130910551F057
:1031C00038F08230910541F0039739F458E705C093
:1031D00058EC03C058EA01C058E18C9128232C9385
:1031E0009BB12091A301822F8C7F9370982B9BB968
:1031F00085B123708C7F822B85B9E091AD01F09170
:10320000AE0190818091B70189238083E091AD0167
:10321000F091AE0190818091B301892B8083E09180
:10322000AB01F091AC0190818091B201892B808338
:103230008BB183705C7F582B5BB940C081309105A6
:1032400051F038F08230910541F0039739F448EF9E
:1032500005C048E403C048E201C048E98C91282336
:103260002C939BB12091A301822F8C7F9370982B7C
:103270009BB985B123708C7F822B85B9E091AD011C
:10328000F091AE0190818091B70189238083E09114
:10329000AD01F091AE0190818091B301892B8083C3
:1032A000E091AB01F091AC0190818091B201892B4A
:1032B00080838BB183704C7F482B4BB985B18C7F59
:1032C00085B9E091AD01F091AE0190818091B70197
:1032D00089238083E091AD01F091AE0190818091CE
:1032E000B301892B808300918F01109190010150CF
:1032F000110920918D0130918E012150310940E05A
:1033000050E060E070E08BE791E00E9474058091EE
:10331000930190919401892B09F093C0E091AB0146
:10332000F091AC0190818091B601892380839BB19B
:1033300020919F01822F8C7F9370982B9BB985B130
:1033400023708C7F822B85B9E091AD01F091AE01A5
:1033500090818091B70189238083E091AD01F09144
:10336000AE0190818091B301892B8083E091AB0104
:10337000F091AC0190818091B201892B80838BB157
:1033800083708BB985B1836085B9E091AD01F0910F
:10339000AE0190818091B70189238083E091AD01D6
:1033A000F091AE0190818091B301892B8083E091EF
:1033B000AB01F091AC0190818091B60189238083AB
:1033C0009BB12091A101822F8C7F9370982B9BB988
:1033D00085B123708C7F822B85B9E091AD01F0918E
:1033E000AE0190818091B70189238083E091AD0186
:1033F000F091AE0190818091B301892B8083E0919F
:10340000AB01F091AC0190818091B201892B808356
:103410008BB183708BB985B18C7F85B9E091AD019B
:10342000F091AE0190818091B70189238083E09172
:10343000AD01F091AE0190818091B301892B808321
:103440003BC080918B0190918C0119821A829B83E1
:103450008C831D821E8260919F017091A00126E0E5
:10346000AE014F5F5F4F8BE791E00E94C10419826C
:103470001A826091A1017091A20122E0AE014F5F1A
:103480005F4F8BE791E00E94C1048091930190917E
:103490009401019741F4198221E0AE014F5F5F4F23
:1034A00061E070E005C020E040E050E063E170E0E2
:1034B0008BE791E00E94C104E091A901F091AA017B
:1034C00090818091B101892B808326960FB6F89464
:1034D000DEBF0FBECDBFDF91CF911F910F91089539
:1034E000CF93C62FE091A901F091AA0130812091DC
:1034F000B50123232083E091AB01F091AC01308131
:103500002091B601232320832BB12370392F3C7FD8
:10351000232B2BB925B12C7F9370922B95B9E09179
:10352000AD01F091AE0120819091B701922390837B
:10353000E091AD01F091AE0120819091B301922B09
:1035400090839BB19370282F2C7F922B9BB995B1C0
:103550009C7F8370892B85B9E091AD01F091AE011C
:1035600090818091B70189238083E091AD01F09132
:10357000AE0190818091B301892B8083E091AB01F2
:10358000F091AC0190818091B201892B80838AB146
:1035900083708AB984B18C7F84B961E070E080E087
:1035A00090E00E944716E091AF01F091B001908148
:1035B0008091B8018923808300C000C000C0000052
:1035C00029B133B1E091AF01F091B00190818091C8
:1035D000B401892B8083E091AF01F091B00190811B
:1035E0008091B8018923808300C000C000C0000022
:1035F00089B193B1E091AF01F091B0015081409158
:10360000B401452B4083C150C7FFCDCFE091A90144
:10361000F091AA0150814091B101452B40834AB1FC
:103620004C6F4AB944B1436044B9482F4C7F892F4D
:103630008370842B2C7F932F9370292B90E0922BF7
:10364000CF9108953FB7F8948091BF019091C00148
:10365000A091C101B091C20126B5A89B05C02F3F22
:1036600019F00196A11DB11D3FBFBA2FA92F982FA8
:103670008827820F911DA11DB11DBC01CD0142E023
:10368000660F771F881F991F4A95D1F708951F92DB
:103690000F920FB60F9211242F933F938F939F9306
:1036A000AF93BF938091BA019091BB01A091BC01EF
:1036B000B091BD013091BE0123E0230F2D3720F4DE
:1036C0000196A11DB11D05C026E8230F0296A11D7C
:1036D000B11D2093BE018093BA019093BB01A093CA
:1036E000BC01B093BD018091BF019091C001A09138
:1036F000C101B091C2010196A11DB11D8093BF010E
:103700009093C001A093C101B093C201BF91AF914A
:103710009F918F913F912F910F900FBE0F901F900F
:103720001895CF93DF93CDB7DEB760970FB6F894B7
:10373000DEBF0FBECDBF789484B5826084BD84B5F2
:10374000816084BD85B5826085BD85B5816085BD9C
:1037500080916E00816080936E0010928100809154
:1037600081008260809381008091810081608093DC
:103770008100809180008160809380008091B10001
:1037800084608093B1008091B00081608093B0002C
:1037900080917A00846080937A0080917A008260C0
:1037A00080937A0080917A00816080937A00809182
:1037B0007A00806880937A001092C10060E083E113
:1037C0000E949A1560E081E10E949A1560E082E112
:1037D0000E949A1560E084E10E949A1560E085E1FC
:1037E0000E949A1561E08AE00E949A1561E08BE0E0
:1037F0000E949A150E94D016809195019091960191
:10380000019631F40E9428129093960180939501BD
:1038100000919501109196010E94D01668EC70E01D
:1038200080E090E00E944716083233E9130709F45C
:103830006DC0A8F4053397E7190709F46FC228F49F
:103840000537154709F4B7C1A6C2003920E91207A8
:1038500009F470C10532134909F458C09CC20638F6
:1038600084E9180709F4DEC108F046C00134E3E931
:103870001E0709F420C10138144909F08CC288E000
:1038800090E090939401809393018AE290E090936A
:103890009801809397018BE290E090939A01809336
:1038A00099018CE290E090939C0180939B018EE2C1
:1038B00090E090939E0180939D0183E390E090932C
:1038C000A00180939F0187E390E09093A2018093F1
:1038D000A10186E390E09093A4018093A30110924C
:1038E000A6011092A5011092A8011092A70160E410
:1038F00070E083EC90E05CC1083824E9120709F419
:10390000CEC10539154909F456C145C2109294013A
:1039100010929301109298011092970110929A01BF
:103920001092990182E290E090939C0180939B0118
:1039300090939E0180939D0181E690E09093A00179
:1039400080939F018AE690E09093A2018093A10169
:1039500083E090E09093A4018093A30181E090E044
:103960009093A6018093A5011092A8011092A7013F
:1039700007E013E0F801859194910C5F1F4FF80167
:103980003297659174918F3FEFEF9E0729F480E0A5
:1039900090E00E94471689C0E091AB01F091AC0124
:1039A00030812091B601232320832BB12370392F3E
:1039B0003C7F232B2BB935B13C7F292F2370932FCC
:1039C000922B95B9E091AD01F091AE0120819091DB
:1039D000B70192239083E091AD01F091AE01208177
:1039E0009091B301922B90839BB19370282F2C7FE1
:1039F000922B9BB995B19C7F8370892B85B9E091FF
:103A0000AD01F091AE0190818091B701892380834F
:103A1000E091AD01F091AE0190818091B301892BCD
:103A20008083E091AB01F091AC0190818091B20173
:103A3000892B80838BB18370972F9C7F892B8BB9C7
:103A400085B18C7F972F9370892B85B9E091AD015B
:103A5000F091AE0190818091B70189238083E0913C
:103A6000AD01F091AE0190818091B301892B8083EB
:103A70008BB18370962F9C7F892B8BB985B18C7FFE
:103A80006370682B65B9E091AD01F091AE01908152
:103A90008091B70189238083E091AD01F091AE015F
:103AA00090818091B301892B8083F3E0033D1F0750
:103AB00009F060CF76C182E090E09093940180930A
:103AC00093018AE290E090939801809397018BE2B2
:103AD00090E090939A01809399018CE290E090930A
:103AE0009C0180939B018EE290E090939E018093D5
:103AF0009D0183E390E09093A00180939F0187E371
:103B000090E09093A2018093A10186E390E09093CE
:103B1000A4018093A3011092A6011092A50181E057
:103B200090E09093A8018093A7016AE770E08DE888
:103B300092E03EC083E090E09093940180939301E3
:103B40008AE290E090939801809397018BE290E055
:103B500090939A01809399018CE290E090939C015C
:103B600080939B018EE290E090939E0180939D0153
:103B700083E390E09093A00180939F0187E390E01E
:103B80009093A2018093A10186E390E09093A40119
:103B90008093A30181E090E09093A6018093A5011A
:103BA0009093A8018093A70166E470E087E492E017
:103BB0000E948116F6C081E090E09093940180937A
:103BC0009301109298011092970110929A0110920D
:103BD000990122E230E030939C0120939B013093C5
:103BE0009E0120939D012EE030E03093A0012093B0
:103BF0009F0124E130E03093A2012093A10126E14E
:103C000030E03093A4012093A3019093A601809308
:103C1000A5019093A8018093A7016FE770E088EC5D
:103C200091E0C6CF85E090E090939401809393015A
:103C30008AE290E090939801809397018BE290E064
:103C400090939A01809399018CE290E090939C016B
:103C500080939B018EE290E090939E0180939D0162
:103C600083E390E09093A00180939F0187E390E02D
:103C70009093A2018093A10186E390E09093A40128
:103C80008093A3011092A6011092A5011092A801A1
:103C90001092A70160E770E088E591E089CF87E0A6
:103CA00090E090939401809393018AE290E0909346
:103CB0009801809397018BE290E090939A01809312
:103CC00099018CE290E090939C0180939B018EE29D
:103CD00090E090939E0180939D0183E390E0909308
:103CE000A00180939F0187E390E09093A2018093CD
:103CF000A10186E390E09093A4018093A301109228
:103D0000A6011092A50181E090E09093A801809314
:103D1000A70165E570E083E091E04ACF86E090E09E
:103D200090939401809393018AE290E0909398019C
:103D3000809397018BE290E090939A018093990190
:103D40008CE290E090939C0180939B018EE290E046
:103D500090939E0180939D0183E390E09093A00156
:103D600080939F0187E390E09093A2018093A1014B
:103D700086E390E09093A4018093A3011092A601A2
:103D80001092A5011092A8011092A7016BE570E0B6
:103D900088E690E00DCF8FEF90E0909394018093B0
:103DA0009301809191010E944617E091A901F09141
:103DB000AA0190818091B501892380839091A5010A
:103DC0002091930130919401E091AB01F091AC010D
:103DD0008091B6012115310591F5208182238083E0
:103DE0008BB1837080668BB985B18C7F816085B91A
:103DF000E091AD01F091AE0120818091B701822365
:103E00008083E091AD01F091AE0120818091B301FA
:103E1000822B8083E091AB01F091AC0120818091F5
:103E2000B201822B80838BB18370292F2C7F822B50
:103E30008BB985B18C7F9370982B95B937C02130A1
:103E4000310509F044C02081822380838BB18370C7
:103E50008BB985B18C7F816085B9E091AD01F0911E
:103E6000AE0120818091B70182238083E091AD0172
:103E7000F091AE0120818091B301822B8083E0918B
:103E8000AB01F091AC0120818091B201822B808343
:103E90008BB1837088608BB985B1282F2C7F9111ED
:103EA00002C082E001C080E0822B85B9E091AD01C3
:103EB000F091AE0190818091B70189238083E091D8
:103EC000AD01F091AE0190818091B30129C02081B4
:103ED000822380838BB1837080628BB985B1282F58
:103EE0002C7F81E0911101C080E0822B85B9E091A7
:103EF000AD01F091AE0190818091B701892380835B
:103F0000E091AD01F091AE0190818091B301892BD8
:103F10008083E091AB01F091AC0190818091B2017E
:103F2000892B8083E091A901F091AA019081809171
:103F3000B101892B80830E94281200918F0110917A
:103F4000900120918D0130918E01E12CF12C40E007
:103F500050E060E070E08BE791E00E944E0C81E061
:103F60000E94461788EE93E0A0E0B0E080935C01E9
:103F700090935D01A0935E01B0935F018AEB94E0A2
:103F800090935B0180935A01809170008E7F8093A3
:103F900070008091B0008C7F8093B0008091B10060
:103FA000877F8093B1008091B6008F7D8093B600AB
:103FB000809170008D7F809370008091B10084604B
:103FC0008093B1008091B1008C7F8093B10086E036
:103FD00090E09093610180936001109263011092D0
:103FE0006401109265011092660110926201809145
:103FF0006001909161018093B200809170008160B6
:10400000809370009E01295F3F4F38872F83212CBA
:1040100058EF352E6FE1462E512C43E0642EA091CF
:104020006C01B0E0FD01E951FC4FE4908091690121
:10403000682F70E0FB01E951FC4F049140916B0146
:1040400050E0FA01E951FC4FB49020916A0130E050
:10405000F901E951FC4FF490FD01E550FC4FD4907B
:10406000FB01E550FC4F7490FA01E550FC4FA49021
:10407000F901E550FC4FC49060E00E949A1560E0A1
:1040800080916A010E949A1510E0000F111F0352DF
:104090001C4FF801A591B4918C91372D30953B8739
:1040A00083238C93EF2DF0E0EE0FFF1FCF0183529F
:1040B0009C4F9D878C87FC01A591B4918C919C2D80
:1040C000909589238C9361E080916C010E949A15F0
:1040D00061E080916B010E949A15F12CF701EE0FBF
:1040E000FF1F9F0123523C4F7901F901A591B49123
:1040F0008C918D298C93EB2DF0E0EE0FFF1FE35296
:10410000FC4FA591B4918C91A094A822AC92CE01C1
:1041100001965C014C018987B88A809169010E94EF
:104120003016F401819391934F012F8138852E171A
:104130003F0799F7C5010E949B148B819C81EFEF8B
:10414000F3E0E81BF90BFF87EE8760E080916C01DC
:104150000E949A1560E080916B010E949A15F70108
:10416000A591B4918C91D0948D218C9361E0809134
:1041700069010E949A15F801A591B491EC917E2AEB
:104180007C9261E080916A010E949A1580916B0196
:104190000E943016F501819391935F012F8138853C
:1041A0002E173F0799F7898598890E949B148B8168
:1041B0009C819A87898761E080916C010E949A15A1
:1041C000F701A591B491EC91DE22DC92EC85FD859E
:1041D000A591B491EC91CE2ACC92F801A591B4911D
:1041E0008C919B8589238C9360E0809169010E946A
:1041F0009A1580916B010E9430168C0180916901A3
:104200000E943016E0906D01F0906E01E114F1040F
:10421000E9F1BC01990F880B990B0E94C0254B0155
:104220005C01B801110F880B990B0E94C0259B01FE
:10423000AC01C501B4010E94162520E030E040E841
:104240005FE30E94A9244B015C01EE85FF85BF015D
:10425000FF0F880B990B0E94C025A50194010E94B5
:104260004C264B015C01B70180E090E00E94BE2526
:10427000A50194010E944C2620E030E040E85AE37A
:104280000E944C260E9488258B0107C0BC01601B40
:10429000710B0FEF13E0061B170B61E08FE00E941C
:1042A0009A1561E080E10E949A15C8010B9785314B
:1042B000934008F0F1C02E853F85C901330FAA0B4A
:1042C000BB0B9C01AD012C58310941095109A0EFEC
:1042D000B0E00E946D2421EF32E040E050E00E9407
:1042E0004E2449015A012FEF33E089859A85281B16
:1042F000390BC901330FAA0BBB0B9C01AD01225630
:10430000310941095109A0E4B1E00E946D2424E083
:1043100033E040E050E00E944E2469017A017724A6
:1043200073947092880192E0909387013092820199
:104330002092810110928401109283014CEA50E096
:1043400060E070E08EE191E00E948012109288019E
:10435000E2E0E09387015092820140928101109245
:104360008401109283012CEA30E04EE650E0C50152
:10437000B4010E94D21370928801F2E0F093870199
:104380003092820120928101109284011092830167
:1043900046EC50E060E070E088E291E00E9480121C
:1043A0001092880122E0209387015092820140926E
:1043B0008101109284011092830126EC30E04EE6D8
:1043C00050E0C701B6010E94D2137092880132E01A
:1043D00030938701309282012092810110928401F2
:1043E0001092830140EE50E060E070E082E391E0E3
:1043F0000E9480121092880182E08093870150927F
:104400008201409281011092840110928301B801CF
:10441000110F880B990B20EE30E04EE650E00E9421
:10442000D2139401255B3109809175019091760139
:104430002732310540F496012150314021333105B6
:1044400010F405960FC0E9E78E1A9108F7E28F166F
:10445000910470F421E0C21AD20A31E3C316D104E8
:1044600038F4059790937601809375010E94D615D4
:10447000809175019091760197FF05C010927601A9
:104480001092750109C0853F914034F024EF31E06E
:1044900030937601209375012FB7F8948091BA017B
:1044A0009091BB01A091BC01B091BD012FBF409183
:1044B0007101509172016091730170917401841BBC
:1044C000950BA60BB70B843F9140A105B10508F1F0
:1044D0002FB7F8948091BA019091BB01A091BC01D3
:1044E000B091BD012FBF8093710190937201A09391
:1044F0007301B093740183E10E94301690937A01A6
:104500008093790185E10E94301690937801809321
:10451000770180910001882309F495C011E0109380
:10452000880160928701309282012092810110926D
:1045300084011092830140E050E060E070E08CE381
:1045400091E00E948012109388016092870130925E
:10455000820120928101109284011092830148E12E
:1045600050E060E070E084E491E00E9480121093DB
:10457000880160928701309282012092810110921D
:1045800084011092830140E350E060E070E08CE42D
:1045900091E00E948012109388011093870130925D
:1045A000820120928101109284011092830140E0E7
:1045B00050E068E171E085E591E00E94801280EEB4
:1045C00097E090938601809385012CE330E04AEFD9
:1045D00050E064E170E083E191E00E94C1142CE3BB
:1045E00030E04CE251E06CE370E08AEF90E00E9432
:1045F000C11424E130E043E151E06CE370E08CE26F
:1046000091E00E94C11420E530E04AEF50E068E7F5
:1046100070E083E191E00E94C11420E530E04CE2BB
:1046200051E060E570E08AEF90E00E94C11428E755
:1046300030E043E151E060E570E08CE291E00E94FF
:10464000C114109200016091790170917A0180E0AB
:1046500090E010928801609287015092820140920E
:104660008101109284011092830120E030E046E93C
:1046700050E00E94D213609177017091780180E040
:1046800090E01092880160928701509282014092DE
:104690008101109284011092830128E130E046E903
:1046A00050E00E94D2136091750170917601072E3F
:1046B000000C880B990B1092880160928701509230
:1046C000820140928101109284011092830120E3C3
:1046D00030E046E950E00E94D21360916F0170E033
:1046E00080E090E01092880121E0209387015092B1
:1046F00082014092810110928401109283012AE08C
:1047000030E048E151E00E94D213809170018F5F48
:1047100080937001E0E0F0E0309709F480CC0995D7
:104720007CCCCF93DF93CBE7D1E080E098EF998703
:10473000888720EE37E03F832E839B878A8781E03E
:104740008C871D8685E091E0998388838CE08EAF0D
:10475000E7EFF3E0E491F0E0EE0FFF1FE352FC4FD0
:10476000A591B491BFA7AEA7E6EFF3E0E491F0E026
:10477000EE0FFF1FE352FC4F8591949199AB88ABEC
:10478000E4EFF3E0E491F0E0EE0FFF1FE352FC4FA3
:10479000859194919BAB8AABE5EFF3E0E491F0E077
:1047A000EE0FFF1FE352FC4F859194919DAB8CABB4
:1047B000EBE0F4E034913EABEAE0F4E024912FAB7F
:1047C000E8E0F4E0949198AFE9E0F4E0849189AFF7
:1047D000432F40954AAFE22FE095EBAFE92FE095EC
:1047E000ECAFE82FE095EDAFEC91E32BEC93E8A96B
:1047F000F9A990818FA9892B8083EAA9FBA99081CF
:1048000088AD892B8083ECA9FDA9908189AD892B86
:10481000808361E080E10E949A1561E08FE00E9450
:104820009A1561E08DE00E949A1561E08EE00E9489
:104830009A1561E08CE00E944D1561E08CE00E94C9
:104840009A151F8A1E8A81E493E99B8F8A8F40EF15
:1048500050E05F874E8720E431E0398B288B8AB1A6
:104860008C6F8AB984B1836084B95B8B4A8B3D8B32
:104870002C8BE7E6F1E080E182838FE0848389E09E
:10488000838388E085838CE291E0978386838AE046
:1048900090E091838083DF91CF910895052E97FB5F
:1048A0001EF400940E94652457FD07D00E947824CE
:1048B00007FC03D04EF40C94652450954095309538
:1048C00021953F4F4F4F5F4F08959095809570957C
:1048D00061957F4F8F4F9F4F08950E949A24A59F07
:1048E000900DB49F900DA49F800D911D11240895EB
:1048F000A1E21A2EAA1BBB1BFD010DC0AA1FBB1FE4
:10490000EE1FFF1FA217B307E407F50720F0A21B55
:10491000B30BE40BF50B661F771F881F991F1A94C2
:1049200069F760957095809590959B01AC01BD01EC
:10493000CF010895A29FB001B39FC001A39F700D46
:10494000811D1124911DB29F700D811D1124911D97
:1049500008955058BB27AA270E94C1240C94122600
:104960000E94042638F00E940B2620F039F49F3F65
:1049700019F426F40C9401260EF4E095E7FB0C9450
:10498000FB25E92F0E94232658F3BA176207730705
:104990008407950720F079F4A6F50C9445260EF4CB
:1049A000E0950B2EBA2FA02D0B01B90190010C013F
:1049B000CA01A0011124FF27591B99F0593F50F457
:1049C000503E68F11A16F040A22F232F342F4427AF
:1049D000585FF3CF469537952795A795F0405395A7
:1049E000C9F77EF41F16BA0B620B730B840BBAF077
:1049F0009150A1F0FF0FBB1F661F771F881FC2F7E2
:104A00000EC0BA0F621F731F841F48F487957795F5
:104A10006795B795F7959E3F08F0B0CF9395880FAF
:104A200008F09927EE0F9795879508950E942A25FB
:104A30000C9412260E940B2658F00E94042640F087
:104A400029F45F3F29F00C94FB2551110C94462664
:104A50000C9401260E94232668F39923B1F3552371
:104A600091F3951B550BBB27AA2762177307840781
:104A700038F09F5F5F4F220F331F441FAA1FA9F317
:104A800035D00E2E3AF0E0E832D091505040E69505
:104A9000001CCAF72BD0FE2F29D0660F771F881F66
:104AA000BB1F261737074807AB07B0E809F0BB0B59
:104AB000802DBF01FF2793585F4F3AF09E3F51056D
:104AC00078F00C94FB250C9446265F3FE4F3983E67
:104AD000D4F3869577956795B795F7959F5FC9F756
:104AE000880F911D9695879597F90895E1E0660FD7
:104AF000771F881FBB1F621773078407BA0720F050
:104B0000621B730B840BBA0BEE1F88F7E0950895B8
:104B10000E948F256894B1110C94462608950E9436
:104B20002B2688F09F5798F0B92F9927B751B0F0EE
:104B3000E1F0660F771F881F991F1AF0BA95C9F721
:104B400014C0B13091F00E944526B1E008950C9454
:104B50004526672F782F8827B85F39F0B93FCCF307
:104B6000869577956795B395D9F73EF4909580959E
:104B7000709561957F4F8F4F9F4F0895E89409C0BE
:104B800097FB3EF490958095709561957F4F8F4F80
:104B90009F4F9923A9F0F92F96E9BB279395F69596
:104BA000879577956795B795F111F8CFFAF4BB0F14
:104BB00011F460FF1BC06F5F7F4F8F4F9F4F16C078
:104BC000882311F096E911C0772321F09EE8872F02
:104BD000762F05C0662371F096E8862F70E060E0BE
:104BE0002AF09A95660F771F881FDAF7880F969537
:104BF000879597F9089597F99F6780E870E060E0DE
:104C000008959FEF80EC089500240A941616170665
:104C100018060906089500240A94121613061406AD
:104C200005060895092E0394000C11F4882352F010
:104C3000BB0F40F4BF2B11F460FF04C06F5F7F4FC8
:104C40008F4F9F4F089557FD9058440F551F59F0AF
:104C50005F3F71F04795880F97FB991F61F09F3F69
:104C600079F087950895121613061406551FF2CF92
:104C70004695F1DF08C0161617061806991FF1CFE2
:104C800086957105610508940895E894BB27662709
:104C90007727CB0197F908950E945F260C9412267E
:104CA0000E94042638F00E940B2620F0952311F074
:104CB0000C94FB250C94012611240C9446260E948A
:104CC000232670F3959FC1F3950F50E0551F629F07
:104CD000F001729FBB27F00DB11D639FAA27F00D55
:104CE000B11DAA1F649F6627B00DA11D661F829F7C
:104CF0002227B00DA11D621F739FB00DA11D621F61
:104D0000839FA00D611D221F749F3327A00D611D7D
:104D1000231F849F600D211D822F762F6A2F11245F
:104D20009F5750409AF0F1F088234AF0EE0FFF1F92
:104D3000BB1F661F771F881F91505040A9F79E3FE9
:104D4000510580F00C94FB250C9446265F3FE4F35C
:104D5000983ED4F3869577956795B795F795E7953F
:104D60009F5FC1F7FE2B880F911D9695879597F948
:104D70000895EE0FFF1F0590F491E02D099481E056
:0C4D800090E0F8940C94C426F894FFCF47
:104D8C000100000000CD10740E4E0C7405D9102CCF
:104D9C000F460C4A0CFF8357281000101810526550
:104DAC00616420702E783A005265616420702E790F
:104DBC003A005265616420702E7A3A005431325FA9
:104DCC0041443A004E54435F41443A005365745495
:0A4DDC00656D703A00467073000028
:107E0000112484B714BE81FFF0D085E080938100F7
:107E100082E08093C00088E18093C10086E0809377
:107E2000C20080E18093C4008EE0C9D0259A86E02C
:107E300020E33CEF91E0309385002093840096BBD3
:107E4000B09BFECF1D9AA8958150A9F7CC24DD24C4
:107E500088248394B5E0AB2EA1E19A2EF3E0BF2EE7
:107E6000A2D0813461F49FD0082FAFD0023811F036
:107E7000013811F484E001C083E08DD089C08234E0
:107E800011F484E103C0853419F485E0A6D080C0E4
:107E9000853579F488D0E82EFF2485D0082F10E0AE
:107EA000102F00270E291F29000F111F8ED06801E7
:107EB0006FC0863521F484E090D080E0DECF843638
:107EC00009F040C070D06FD0082F6DD080E0C81688
:107ED00080E7D80618F4F601B7BEE895C0E0D1E017
:107EE00062D089930C17E1F7F0E0CF16F0E7DF06D8
:107EF00018F0F601B7BEE89568D007B600FCFDCFD4
:107F0000A601A0E0B1E02C9130E011968C91119780
:107F100090E0982F8827822B932B1296FA010C0160
:107F200087BEE89511244E5F5F4FF1E0A038BF0790
:107F300051F7F601A7BEE89507B600FCFDCF97BE46
:107F4000E89526C08437B1F42ED02DD0F82E2BD052
:107F50003CD0F601EF2C8F010F5F1F4F84911BD097
:107F6000EA94F801C1F70894C11CD11CFA94CF0C13
:107F7000D11C0EC0853739F428D08EE10CD085E9AC
:107F80000AD08FE07ACF813511F488E018D01DD067
:107F900080E101D065CF982F8091C00085FFFCCF94
:107FA0009093C60008958091C00087FFFCCF809118
:107FB000C00084FD01C0A8958091C6000895E0E648
:107FC000F0E098E1908380830895EDDF803219F02E
:107FD00088E0F5DFFFCF84E1DECF1F93182FE3DFCA
:107FE0001150E9F7F2DF1F91089580E0E8DFEE27F6
:047FF000FF270994CA
:027FFE00040479
:0400000300007E007B
:00000001FF
